{"abi":[{"type":"constructor","inputs":[],"stateMutability":"nonpayable"},{"type":"function","name":"DEPLOYER","inputs":[],"outputs":[{"name":"","type":"address","internalType":"address"}],"stateMutability":"view"},{"type":"function","name":"MAX_SUPPLY","inputs":[],"outputs":[{"name":"","type":"uint256","internalType":"uint256"}],"stateMutability":"view"},{"type":"function","name":"allowance","inputs":[{"name":"owner","type":"address","internalType":"address"},{"name":"spender","type":"address","internalType":"address"}],"outputs":[{"name":"","type":"uint256","internalType":"uint256"}],"stateMutability":"view"},{"type":"function","name":"approve","inputs":[{"name":"spender","type":"address","internalType":"address"},{"name":"value","type":"uint256","internalType":"uint256"}],"outputs":[{"name":"","type":"bool","internalType":"bool"}],"stateMutability":"nonpayable"},{"type":"function","name":"balanceOf","inputs":[{"name":"account","type":"address","internalType":"address"}],"outputs":[{"name":"","type":"uint256","internalType":"uint256"}],"stateMutability":"view"},{"type":"function","name":"decimals","inputs":[],"outputs":[{"name":"","type":"uint8","internalType":"uint8"}],"stateMutability":"view"},{"type":"function","name":"mint","inputs":[{"name":"to","type":"address","internalType":"address"},{"name":"amount","type":"uint256","internalType":"uint256"}],"outputs":[],"stateMutability":"nonpayable"},{"type":"function","name":"name","inputs":[],"outputs":[{"name":"","type":"string","internalType":"string"}],"stateMutability":"view"},{"type":"function","name":"setVault","inputs":[{"name":"_vault","type":"address","internalType":"address"}],"outputs":[],"stateMutability":"nonpayable"},{"type":"function","name":"symbol","inputs":[],"outputs":[{"name":"","type":"string","internalType":"string"}],"stateMutability":"view"},{"type":"function","name":"totalSupply","inputs":[],"outputs":[{"name":"","type":"uint256","internalType":"uint256"}],"stateMutability":"view"},{"type":"function","name":"transfer","inputs":[{"name":"to","type":"address","internalType":"address"},{"name":"value","type":"uint256","internalType":"uint256"}],"outputs":[{"name":"","type":"bool","internalType":"bool"}],"stateMutability":"nonpayable"},{"type":"function","name":"transferFrom","inputs":[{"name":"from","type":"address","internalType":"address"},{"name":"to","type":"address","internalType":"address"},{"name":"value","type":"uint256","internalType":"uint256"}],"outputs":[{"name":"","type":"bool","internalType":"bool"}],"stateMutability":"nonpayable"},{"type":"function","name":"vault","inputs":[],"outputs":[{"name":"","type":"address","internalType":"address"}],"stateMutability":"view"},{"type":"event","name":"Approval","inputs":[{"name":"owner","type":"address","indexed":true,"internalType":"address"},{"name":"spender","type":"address","indexed":true,"internalType":"address"},{"name":"value","type":"uint256","indexed":false,"internalType":"uint256"}],"anonymous":false},{"type":"event","name":"Transfer","inputs":[{"name":"from","type":"address","indexed":true,"internalType":"address"},{"name":"to","type":"address","indexed":true,"internalType":"address"},{"name":"value","type":"uint256","indexed":false,"internalType":"uint256"}],"anonymous":false},{"type":"error","name":"CapExceeded","inputs":[{"name":"requested","type":"uint256","internalType":"uint256"},{"name":"available","type":"uint256","internalType":"uint256"}]},{"type":"error","name":"ERC20InsufficientAllowance","inputs":[{"name":"spender","type":"address","internalType":"address"},{"name":"allowance","type":"uint256","internalType":"uint256"},{"name":"needed","type":"uint256","internalType":"uint256"}]},{"type":"error","name":"ERC20InsufficientBalance","inputs":[{"name":"sender","type":"address","internalType":"address"},{"name":"balance","type":"uint256","internalType":"uint256"},{"name":"needed","type":"uint256","internalType":"uint256"}]},{"type":"error","name":"ERC20InvalidApprover","inputs":[{"name":"approver","type":"address","internalType":"address"}]},{"type":"error","name":"ERC20InvalidReceiver","inputs":[{"name":"receiver","type":"address","internalType":"address"}]},{"type":"error","name":"ERC20InvalidSender","inputs":[{"name":"sender","type":"address","internalType":"address"}]},{"type":"error","name":"ERC20InvalidSpender","inputs":[{"name":"spender","type":"address","internalType":"address"}]},{"type":"error","name":"UnauthorizedMinter","inputs":[{"name":"caller","type":"address","internalType":"address"}]},{"type":"error","name":"VaultAlreadySet","inputs":[]},{"type":"error","name":"ZeroVaultAddress","inputs":[]}],"bytecode":{"object":"0x60a060405234801561000f575f5ffd5b506040518060400160405280600a81526020017f5661756c74546f6b656e000000000000000000000000000000000000000000008152506040518060400160405280600381526020017f56544b0000000000000000000000000000000000000000000000000000000000815250816003908161008b9190610325565b50806004908161009b9190610325565b5050503373ffffffffffffffffffffffffffffffffffffffff1660808173ffffffffffffffffffffffffffffffffffffffff16815250506103f4565b5f81519050919050565b7f4e487b71000000000000000000000000000000000000000000000000000000005f52604160045260245ffd5b7f4e487b71000000000000000000000000000000000000000000000000000000005f52602260045260245ffd5b5f600282049050600182168061015257607f821691505b6020821081036101655761016461010e565b5b50919050565b5f819050815f5260205f209050919050565b5f6020601f8301049050919050565b5f82821b905092915050565b5f600883026101c77fffffffffffffffffffffffffffffffffffffffffffffffffffffffffffffffff8261018c565b6101d1868361018c565b95508019841693508086168417925050509392505050565b5f819050919050565b5f819050919050565b5f61021561021061020b846101e9565b6101f2565b6101e9565b9050919050565b5f819050919050565b61022e836101fb565b61024261023a8261021c565b848454610198565b825550505050565b5f5f905090565b61025961024a565b610264818484610225565b505050565b5f5b8281101561028a5761027f5f828401610251565b60018101905061026b565b505050565b601f8211156102dd57828211156102dc576102a98161016b565b6102b28361017d565b6102bb8561017d565b60208610156102c8575f90505b8083016102d782840382610269565b505050505b5b505050565b5f82821c905092915050565b5f6102fd5f19846008026102e2565b1980831691505092915050565b5f61031583836102ee565b9150826002028217905092915050565b61032e826100d7565b67ffffffffffffffff811115610347576103466100e1565b5b610351825461013b565b61035c82828561028f565b5f60209050601f83116001811461038d575f841561037b578287015190505b610385858261030a565b8655506103ec565b601f19841661039b8661016b565b5f5b828110156103c25784890151825560018201915060208501945060208101905061039d565b868310156103df57848901516103db601f8916826102ee565b8355505b6001600288020188555050505b505050505050565b6080516112c16104135f395f81816104f001526107a501526112c15ff3fe608060405234801561000f575f5ffd5b50600436106100e8575f3560e01c80636817031b1161008a578063a9059cbb11610064578063a9059cbb1461024a578063c1b8411a1461027a578063dd62ed3e14610298578063fbfa77cf146102c8576100e8565b80636817031b146101e057806370a08231146101fc57806395d89b411461022c576100e8565b806323b872dd116100c657806323b872dd14610158578063313ce5671461018857806332cb6b0c146101a657806340c10f19146101c4576100e8565b806306fdde03146100ec578063095ea7b31461010a57806318160ddd1461013a575b5f5ffd5b6100f46102e6565b6040516101019190610ee0565b60405180910390f35b610124600480360381019061011f9190610f91565b610376565b6040516101319190610fe9565b60405180910390f35b610142610398565b60405161014f9190611011565b60405180910390f35b610172600480360381019061016d919061102a565b6103a1565b60405161017f9190610fe9565b60405180910390f35b6101906103cf565b60405161019d9190611095565b60405180910390f35b6101ae6103d7565b6040516101bb9190611011565b60405180910390f35b6101de60048036038101906101d99190610f91565b6103e6565b005b6101fa60048036038101906101f591906110ae565b6104ee565b005b610216600480360381019061021191906110ae565b6106ac565b6040516102239190611011565b60405180910390f35b6102346106f1565b6040516102419190610ee0565b60405180910390f35b610264600480360381019061025f9190610f91565b610781565b6040516102719190610fe9565b60405180910390f35b6102826107a3565b60405161028f91906110e8565b60405180910390f35b6102b260048036038101906102ad9190611101565b6107c7565b6040516102bf9190611011565b60405180910390f35b6102d0610849565b6040516102dd91906110e8565b60405180910390f35b6060600380546102f59061116c565b80601f01602080910402602001604051908101604052809291908181526020018280546103219061116c565b801561036c5780601f106103435761010080835404028352916020019161036c565b820191905f5260205f20905b81548152906001019060200180831161034f57829003601f168201915b5050505050905090565b5f5f61038061086e565b905061038d818585610875565b600191505092915050565b5f600254905090565b5f5f6103ab61086e565b90506103b8858285610887565b6103c3858585610919565b60019150509392505050565b5f6012905090565b6a084595161401484a00000081565b60055f9054906101000a900473ffffffffffffffffffffffffffffffffffffffff1673ffffffffffffffffffffffffffffffffffffffff163373ffffffffffffffffffffffffffffffffffffffff161461047757336040517fa4f3966500000000000000000000000000000000000000000000000000000000815260040161046e91906110e8565b60405180910390fd5b5f610480610398565b6a084595161401484a00000061049691906111c9565b9050808211156104df5781816040517ff480e2850000000000000000000000000000000000000000000000000000000081526004016104d69291906111fc565b60405180910390fd5b6104e98383610a09565b505050565b7f000000000000000000000000000000000000000000000000000000000000000073ffffffffffffffffffffffffffffffffffffffff163373ffffffffffffffffffffffffffffffffffffffff161461057e57336040517fa4f3966500000000000000000000000000000000000000000000000000000000815260040161057591906110e8565b60405180910390fd5b5f73ffffffffffffffffffffffffffffffffffffffff1660055f9054906101000a900473ffffffffffffffffffffffffffffffffffffffff1673ffffffffffffffffffffffffffffffffffffffff1614610604576040517f1bb0ddfb00000000000000000000000000000000000000000000000000000000815260040160405180910390fd5b5f73ffffffffffffffffffffffffffffffffffffffff168173ffffffffffffffffffffffffffffffffffffffff1603610669576040517fd580689d00000000000000000000000000000000000000000000000000000000815260040160405180910390fd5b8060055f6101000a81548173ffffffffffffffffffffffffffffffffffffffff021916908373ffffffffffffffffffffffffffffffffffffffff16021790555050565b5f5f5f8373ffffffffffffffffffffffffffffffffffffffff1673ffffffffffffffffffffffffffffffffffffffff1681526020019081526020015f20549050919050565b6060600480546107009061116c565b80601f016020809104026020016040519081016040528092919081815260200182805461072c9061116c565b80156107775780601f1061074e57610100808354040283529160200191610777565b820191905f5260205f20905b81548152906001019060200180831161075a57829003601f168201915b5050505050905090565b5f5f61078b61086e565b9050610798818585610919565b600191505092915050565b7f000000000000000000000000000000000000000000000000000000000000000081565b5f60015f8473ffffffffffffffffffffffffffffffffffffffff1673ffffffffffffffffffffffffffffffffffffffff1681526020019081526020015f205f8373ffffffffffffffffffffffffffffffffffffffff1673ffffffffffffffffffffffffffffffffffffffff1681526020019081526020015f2054905092915050565b60055f9054906101000a900473ffffffffffffffffffffffffffffffffffffffff1681565b5f33905090565b6108828383836001610a88565b505050565b5f61089284846107c7565b90507fffffffffffffffffffffffffffffffffffffffffffffffffffffffffffffffff81146109135781811015610904578281836040517ffb8f41b20000000000000000000000000000000000000000000000000000000081526004016108fb93929190611223565b60405180910390fd5b61091284848484035f610a88565b5b50505050565b5f73ffffffffffffffffffffffffffffffffffffffff168373ffffffffffffffffffffffffffffffffffffffff1603610989575f6040517f96c6fd1e00000000000000000000000000000000000000000000000000000000815260040161098091906110e8565b60405180910390fd5b5f73ffffffffffffffffffffffffffffffffffffffff168273ffffffffffffffffffffffffffffffffffffffff16036109f9575f6040517fec442f050000000000000000000000000000000000000000000000000000000081526004016109f091906110e8565b60405180910390fd5b610a04838383610c57565b505050565b5f73ffffffffffffffffffffffffffffffffffffffff168273ffffffffffffffffffffffffffffffffffffffff1603610a79575f6040517fec442f05000000000000000000000000000000000000000000000000000000008152600401610a7091906110e8565b60405180910390fd5b610a845f8383610c57565b5050565b5f73ffffffffffffffffffffffffffffffffffffffff168473ffffffffffffffffffffffffffffffffffffffff1603610af8575f6040517fe602df05000000000000000000000000000000000000000000000000000000008152600401610aef91906110e8565b60405180910390fd5b5f73ffffffffffffffffffffffffffffffffffffffff168373ffffffffffffffffffffffffffffffffffffffff1603610b68575f6040517f94280d62000000000000000000000000000000000000000000000000000000008152600401610b5f91906110e8565b60405180910390fd5b8160015f8673ffffffffffffffffffffffffffffffffffffffff1673ffffffffffffffffffffffffffffffffffffffff1681526020019081526020015f205f8573ffffffffffffffffffffffffffffffffffffffff1673ffffffffffffffffffffffffffffffffffffffff1681526020019081526020015f20819055508015610c51578273ffffffffffffffffffffffffffffffffffffffff168473ffffffffffffffffffffffffffffffffffffffff167f8c5be1e5ebec7d5bd14f71427d1e84f3dd0314c0f7b2291e5b200ac8c7c3b92584604051610c489190611011565b60405180910390a35b50505050565b5f73ffffffffffffffffffffffffffffffffffffffff168373ffffffffffffffffffffffffffffffffffffffff1603610ca7578060025f828254610c9b9190611258565b92505081905550610d75565b5f5f5f8573ffffffffffffffffffffffffffffffffffffffff1673ffffffffffffffffffffffffffffffffffffffff1681526020019081526020015f2054905081811015610d30578381836040517fe450d38c000000000000000000000000000000000000000000000000000000008152600401610d2793929190611223565b60405180910390fd5b8181035f5f8673ffffffffffffffffffffffffffffffffffffffff1673ffffffffffffffffffffffffffffffffffffffff1681526020019081526020015f2081905550505b5f73ffffffffffffffffffffffffffffffffffffffff168273ffffffffffffffffffffffffffffffffffffffff1603610dbc578060025f8282540392505081905550610e06565b805f5f8473ffffffffffffffffffffffffffffffffffffffff1673ffffffffffffffffffffffffffffffffffffffff1681526020019081526020015f205f82825401925050819055505b8173ffffffffffffffffffffffffffffffffffffffff168373ffffffffffffffffffffffffffffffffffffffff167fddf252ad1be2c89b69c2b068fc378daa952ba7f163c4a11628f55a4df523b3ef83604051610e639190611011565b60405180910390a3505050565b5f81519050919050565b5f82825260208201905092915050565b8281835e5f83830152505050565b5f601f19601f8301169050919050565b5f610eb282610e70565b610ebc8185610e7a565b9350610ecc818560208601610e8a565b610ed581610e98565b840191505092915050565b5f6020820190508181035f830152610ef88184610ea8565b905092915050565b5f5ffd5b5f73ffffffffffffffffffffffffffffffffffffffff82169050919050565b5f610f2d82610f04565b9050919050565b610f3d81610f23565b8114610f47575f5ffd5b50565b5f81359050610f5881610f34565b92915050565b5f819050919050565b610f7081610f5e565b8114610f7a575f5ffd5b50565b5f81359050610f8b81610f67565b92915050565b5f5f60408385031215610fa757610fa6610f00565b5b5f610fb485828601610f4a565b9250506020610fc585828601610f7d565b9150509250929050565b5f8115159050919050565b610fe381610fcf565b82525050565b5f602082019050610ffc5f830184610fda565b92915050565b61100b81610f5e565b82525050565b5f6020820190506110245f830184611002565b92915050565b5f5f5f6060848603121561104157611040610f00565b5b5f61104e86828701610f4a565b935050602061105f86828701610f4a565b925050604061107086828701610f7d565b9150509250925092565b5f60ff82169050919050565b61108f8161107a565b82525050565b5f6020820190506110a85f830184611086565b92915050565b5f602082840312156110c3576110c2610f00565b5b5f6110d084828501610f4a565b91505092915050565b6110e281610f23565b82525050565b5f6020820190506110fb5f8301846110d9565b92915050565b5f5f6040838503121561111757611116610f00565b5b5f61112485828601610f4a565b925050602061113585828601610f4a565b9150509250929050565b7f4e487b71000000000000000000000000000000000000000000000000000000005f52602260045260245ffd5b5f600282049050600182168061118357607f821691505b6020821081036111965761119561113f565b5b50919050565b7f4e487b71000000000000000000000000000000000000000000000000000000005f52601160045260245ffd5b5f6111d382610f5e565b91506111de83610f5e565b92508282039050818111156111f6576111f561119c565b5b92915050565b5f60408201905061120f5f830185611002565b61121c6020830184611002565b9392505050565b5f6060820190506112365f8301866110d9565b6112436020830185611002565b6112506040830184611002565b949350505050565b5f61126282610f5e565b915061126d83610f5e565b92508282019050808211156112855761128461119c565b5b9291505056fea2646970667358221220e974d5ebbefde818e6a9d8241e5f2f33362b9a45bf0fbc92dd7ac15a288f87f464736f6c63430008210033","linkReferences":{}},"methodIdentifiers":{"DEPLOYER()":"c1b8411a","MAX_SUPPLY()":"32cb6b0c","allowance(address,address)":"dd62ed3e","approve(address,uint256)":"095ea7b3","balanceOf(address)":"70a08231","decimals()":"313ce567","mint(address,uint256)":"40c10f19","name()":"06fdde03","setVault(address)":"6817031b","symbol()":"95d89b41","totalSupply()":"18160ddd","transfer(address,uint256)":"a9059cbb","transferFrom(address,address,uint256)":"23b872dd","vault()":"fbfa77cf"},"id":38}