{"abi":[{"type":"constructor","inputs":[{"name":"initialOwner","type":"address","internalType":"address"},{"name":"_rewardToken","type":"address","internalType":"address"},{"name":"_membershipNft","type":"address","internalType":"address"},{"name":"_treasury","type":"address","internalType":"address"},{"name":"_baseRewardRate","type":"uint256","internalType":"uint256"}],"stateMutability":"nonpayable"},{"type":"function","name":"MEMBERSHIP_NFT","inputs":[],"outputs":[{"name":"","type":"address","internalType":"contract MembershipNFT"}],"stateMutability":"view"},{"type":"function","name":"RATE_PRECISION","inputs":[],"outputs":[{"name":"","type":"uint256","internalType":"uint256"}],"stateMutability":"view"},{"type":"function","name":"REWARD_TOKEN","inputs":[],"outputs":[{"name":"","type":"address","internalType":"contract VaultToken"}],"stateMutability":"view"},{"type":"function","name":"addToken","inputs":[{"name":"token","type":"address","internalType":"address"},{"name":"priceFeed","type":"address","internalType":"address"}],"outputs":[],"stateMutability":"nonpayable"},{"type":"function","name":"baseRewardRate","inputs":[],"outputs":[{"name":"","type":"uint256","internalType":"uint256"}],"stateMutability":"view"},{"type":"function","name":"emergencyWithdraw","inputs":[{"name":"stakeIndex","type":"uint256","internalType":"uint256"}],"outputs":[],"stateMutability":"nonpayable"},{"type":"function","name":"getPendingRewards","inputs":[{"name":"user","type":"address","internalType":"address"},{"name":"stakeIndex","type":"uint256","internalType":"uint256"}],"outputs":[{"name":"","type":"uint256","internalType":"uint256"}],"stateMutability":"view"},{"type":"function","name":"getTotalValueLocked","inputs":[],"outputs":[{"name":"tvl","type":"uint256","internalType":"uint256"}],"stateMutability":"view"},{"type":"function","name":"getUserStakes","inputs":[{"name":"user","type":"address","internalType":"address"}],"outputs":[{"name":"","type":"tuple[]","internalType":"struct LockVault.Stake[]","components":[{"name":"token","type":"address","internalType":"address"},{"name":"amount","type":"uint256","internalType":"uint256"},{"name":"lockTier","type":"uint8","internalType":"enum LockVault.LockTier"},{"name":"startTimestamp","type":"uint256","internalType":"uint256"},{"name":"claimed","type":"bool","internalType":"bool"}]}],"stateMutability":"view"},{"type":"function","name":"owner","inputs":[],"outputs":[{"name":"","type":"address","internalType":"address"}],"stateMutability":"view"},{"type":"function","name":"removeToken","inputs":[{"name":"token","type":"address","internalType":"address"}],"outputs":[],"stateMutability":"nonpayable"},{"type":"function","name":"renounceOwnership","inputs":[],"outputs":[],"stateMutability":"nonpayable"},{"type":"function","name":"setBaseRewardRate","inputs":[{"name":"newRate","type":"uint256","internalType":"uint256"}],"outputs":[],"stateMutability":"nonpayable"},{"type":"function","name":"setTreasury","inputs":[{"name":"newTreasury","type":"address","internalType":"address"}],"outputs":[],"stateMutability":"nonpayable"},{"type":"function","name":"stake","inputs":[{"name":"token","type":"address","internalType":"address"},{"name":"amount","type":"uint256","internalType":"uint256"},{"name":"lockTier","type":"uint8","internalType":"enum LockVault.LockTier"}],"outputs":[],"stateMutability":"nonpayable"},{"type":"function","name":"tokenInfos","inputs":[{"name":"","type":"address","internalType":"address"}],"outputs":[{"name":"whitelisted","type":"bool","internalType":"bool"},{"name":"priceFeed","type":"address","internalType":"address"}],"stateMutability":"view"},{"type":"function","name":"totalStaked","inputs":[{"name":"","type":"address","internalType":"address"}],"outputs":[{"name":"","type":"uint256","internalType":"uint256"}],"stateMutability":"view"},{"type":"function","name":"transferOwnership","inputs":[{"name":"newOwner","type":"address","internalType":"address"}],"outputs":[],"stateMutability":"nonpayable"},{"type":"function","name":"treasury","inputs":[],"outputs":[{"name":"","type":"address","internalType":"address"}],"stateMutability":"view"},{"type":"function","name":"whitelistedTokens","inputs":[{"name":"","type":"uint256","internalType":"uint256"}],"outputs":[{"name":"","type":"address","internalType":"address"}],"stateMutability":"view"},{"type":"function","name":"withdraw","inputs":[{"name":"stakeIndex","type":"uint256","internalType":"uint256"}],"outputs":[],"stateMutability":"nonpayable"},{"type":"event","name":"EmergencyWithdrawn","inputs":[{"name":"user","type":"address","indexed":true,"internalType":"address"},{"name":"stakeIndex","type":"uint256","indexed":false,"internalType":"uint256"},{"name":"amount","type":"uint256","indexed":false,"internalType":"uint256"},{"name":"penaltyRewards","type":"uint256","indexed":false,"internalType":"uint256"}],"anonymous":false},{"type":"event","name":"OwnershipTransferred","inputs":[{"name":"previousOwner","type":"address","indexed":true,"internalType":"address"},{"name":"newOwner","type":"address","indexed":true,"internalType":"address"}],"anonymous":false},{"type":"event","name":"RewardRateUpdated","inputs":[{"name":"oldRate","type":"uint256","indexed":false,"internalType":"uint256"},{"name":"newRate","type":"uint256","indexed":false,"internalType":"uint256"}],"anonymous":false},{"type":"event","name":"RewardsClaimed","inputs":[{"name":"user","type":"address","indexed":true,"internalType":"address"},{"name":"stakeIndex","type":"uint256","indexed":false,"internalType":"uint256"},{"name":"rewards","type":"uint256","indexed":false,"internalType":"uint256"}],"anonymous":false},{"type":"event","name":"Staked","inputs":[{"name":"user","type":"address","indexed":true,"internalType":"address"},{"name":"token","type":"address","indexed":true,"internalType":"address"},{"name":"amount","type":"uint256","indexed":false,"internalType":"uint256"},{"name":"lockTier","type":"uint8","indexed":false,"internalType":"uint8"},{"name":"stakeIndex","type":"uint256","indexed":false,"internalType":"uint256"}],"anonymous":false},{"type":"event","name":"TokenDelisted","inputs":[{"name":"token","type":"address","indexed":true,"internalType":"address"}],"anonymous":false},{"type":"event","name":"TokenWhitelisted","inputs":[{"name":"token","type":"address","indexed":true,"internalType":"address"},{"name":"priceFeed","type":"address","indexed":false,"internalType":"address"}],"anonymous":false},{"type":"event","name":"TreasuryUpdated","inputs":[{"name":"oldTreasury","type":"address","indexed":false,"internalType":"address"},{"name":"newTreasury","type":"address","indexed":false,"internalType":"address"}],"anonymous":false},{"type":"event","name":"Withdrawn","inputs":[{"name":"user","type":"address","indexed":true,"internalType":"address"},{"name":"stakeIndex","type":"uint256","indexed":false,"internalType":"uint256"},{"name":"amount","type":"uint256","indexed":false,"internalType":"uint256"},{"name":"rewards","type":"uint256","indexed":false,"internalType":"uint256"}],"anonymous":false},{"type":"error","name":"AddressEmptyCode","inputs":[{"name":"target","type":"address","internalType":"address"}]},{"type":"error","name":"AddressInsufficientBalance","inputs":[{"name":"account","type":"address","internalType":"address"}]},{"type":"error","name":"FailedInnerCall","inputs":[]},{"type":"error","name":"InvalidTreasury","inputs":[]},{"type":"error","name":"OwnableInvalidOwner","inputs":[{"name":"owner","type":"address","internalType":"address"}]},{"type":"error","name":"OwnableUnauthorizedAccount","inputs":[{"name":"account","type":"address","internalType":"address"}]},{"type":"error","name":"SafeERC20FailedOperation","inputs":[{"name":"token","type":"address","internalType":"address"}]},{"type":"error","name":"StakeAlreadyClaimed","inputs":[{"name":"stakeIndex","type":"uint256","internalType":"uint256"}]},{"type":"error","name":"StakeIndexOutOfBounds","inputs":[{"name":"stakeIndex","type":"uint256","internalType":"uint256"}]},{"type":"error","name":"StakeNotExpired","inputs":[{"name":"unlockTime","type":"uint256","internalType":"uint256"}]},{"type":"error","name":"TokenAlreadyWhitelisted","inputs":[{"name":"token","type":"address","internalType":"address"}]},{"type":"error","name":"TokenNotWhitelisted","inputs":[{"name":"token","type":"address","internalType":"address"}]},{"type":"error","name":"ZeroAmount","inputs":[]}],"bytecode":{"object":"0x60c06040526040518060600160405280600a60ff168152602001601960ff168152602001603c60ff168152506001908161003991906104fc565b5060405180606001604052806103e861ffff1681526020016109c461ffff16815260200161138861ffff168152506004908161007591906105b4565b50348015610081575f5ffd5b5060405161364738038061364783398181016040528101906100a391906106c0565b845f73ffffffffffffffffffffffffffffffffffffffff168173ffffffffffffffffffffffffffffffffffffffff1603610114575f6040517f1e4fbdf700000000000000000000000000000000000000000000000000000000815260040161010b9190610746565b60405180910390fd5b6101238161024260201b60201c565b505f73ffffffffffffffffffffffffffffffffffffffff168273ffffffffffffffffffffffffffffffffffffffff1603610189576040517f14bcf5c800000000000000000000000000000000000000000000000000000000815260040160405180910390fd5b8373ffffffffffffffffffffffffffffffffffffffff1660808173ffffffffffffffffffffffffffffffffffffffff16815250508273ffffffffffffffffffffffffffffffffffffffff1660a08173ffffffffffffffffffffffffffffffffffffffff16815250508160075f6101000a81548173ffffffffffffffffffffffffffffffffffffffff021916908373ffffffffffffffffffffffffffffffffffffffff16021790555080600881905550505050505061075f565b5f5f5f9054906101000a900473ffffffffffffffffffffffffffffffffffffffff169050815f5f6101000a81548173ffffffffffffffffffffffffffffffffffffffff021916908373ffffffffffffffffffffffffffffffffffffffff1602179055508173ffffffffffffffffffffffffffffffffffffffff168173ffffffffffffffffffffffffffffffffffffffff167f8be0079c531659141344cd1fd0a4f28419497f9722a3daafe3b4186f6b6457e060405160405180910390a35050565b7f4e487b71000000000000000000000000000000000000000000000000000000005f52604160045260245ffd5b5f60039050919050565b5f819050919050565b5f8190506001806001038301049050919050565b5f819050919050565b5f82821b905092915050565b5f6008830261039b7fffffffffffffffffffffffffffffffffffffffffffffffffffffffffffffffff82610360565b6103a58683610360565b95508019841693508086168417925050509392505050565b5f819050919050565b5f6103e06103db6103d68461033a565b6103bd565b61033a565b9050919050565b5f819050919050565b6103f9836103c6565b61040d610405826103e7565b84845461036c565b825550505050565b5f5f905090565b610424610415565b61042f8184846103f0565b505050565b5f5b828110156104555761044a5f82840161041c565b600181019050610436565b505050565b818310156104915761046b82610343565b61047484610343565b61047d83610357565b81810161048c83850382610434565b505050505b505050565b680100000000000000008211156104b0576104af610303565b5b6104b981610330565b6104c483828461045a565b505050565b5f60039050919050565b5f60ff82169050919050565b5f6104ea82516104d3565b80915050919050565b5f819050919050565b610505826104c9565b67ffffffffffffffff81111561051e5761051d610303565b5b6105288183610496565b610531836104f3565b61053a83610357565b600183045f5b81811015610577575f610552856104df565b61055b816103e7565b8092506020870196505050808285015550600181019050610540565b50505050505050565b5f60039050919050565b5f61ffff82169050919050565b5f6105a2825161058a565b80915050919050565b5f819050919050565b6105bd82610580565b67ffffffffffffffff8111156105d6576105d5610303565b5b6105e08183610496565b6105e9836105ab565b6105f283610357565b600183045f5b8181101561062f575f61060a85610597565b610613816103e7565b80925060208701965050508082850155506001810190506105f8565b50505050505050565b5f5ffd5b5f73ffffffffffffffffffffffffffffffffffffffff82169050919050565b5f6106658261063c565b9050919050565b6106758161065b565b811461067f575f5ffd5b50565b5f815190506106908161066c565b92915050565b61069f8161033a565b81146106a9575f5ffd5b50565b5f815190506106ba81610696565b92915050565b5f5f5f5f5f60a086880312156106d9576106d8610638565b5b5f6106e688828901610682565b95505060206106f788828901610682565b945050604061070888828901610682565b935050606061071988828901610682565b925050608061072a888289016106ac565b9150509295509295909350565b6107408161065b565b82525050565b5f6020820190506107595f830184610737565b92915050565b60805160a051612eab61079c5f395f81816103e80152611fbc01525f818161126601528181611afa01528181611b870152611c3f0152612eab5ff3fe608060405234801561000f575f5ffd5b5060043610610135575f3560e01c8063842e2981116100b6578063b26025aa1161007a578063b26025aa14610313578063ba46ae7214610331578063e4e7c6b414610362578063f0a9abe714610392578063f0f44260146103ae578063f2fde38b146103ca57610135565b8063842e2981146102595780638da5cb5b1461028957806399248ea7146102a75780639bfd8d61146102c5578063afbf3440146102f557610135565b80635476bd72116100fd5780635476bd72146101dd5780635fa7b584146101f957806361d027b3146102155780636341c06014610233578063715018a61461024f57610135565b80631d3d9935146101395780632154bc44146101575780632b3ba681146101875780632e1a7d4d146101a55780635312ea8e146101c1575b5f5ffd5b6101416103e6565b60405161014e9190612352565b60405180910390f35b610171600480360381019061016c91906123a2565b61040a565b60405161017e91906123ed565b60405180910390f35b61018f610445565b60405161019c9190612415565b60405180910390f35b6101bf60048036038101906101ba91906123a2565b610451565b005b6101db60048036038101906101d691906123a2565b610673565b005b6101f760048036038101906101f29190612458565b610887565b005b610213600480360381019061020e9190612496565b610aa0565b005b61021d610d49565b60405161022a91906123ed565b60405180910390f35b61024d600480360381019061024891906124e4565b610d6e565b005b6102576110d5565b005b610273600480360381019061026e9190612496565b6110e8565b60405161028091906126ed565b60405180910390f35b61029161123d565b60405161029e91906123ed565b60405180910390f35b6102af611264565b6040516102bc919061272d565b60405180910390f35b6102df60048036038101906102da9190612496565b611288565b6040516102ec9190612415565b60405180910390f35b6102fd61129d565b60405161030a9190612415565b60405180910390f35b61031b6112a3565b6040516103289190612415565b60405180910390f35b61034b60048036038101906103469190612496565b6114e5565b604051610359929190612755565b60405180910390f35b61037c6004803603810190610377919061277c565b611530565b6040516103899190612415565b60405180910390f35b6103ac60048036038101906103a791906123a2565b6115be565b005b6103c860048036038101906103c39190612496565b61160b565b005b6103e460048036038101906103df9190612496565b611715565b005b7f000000000000000000000000000000000000000000000000000000000000000081565b600a8181548110610419575f80fd5b905f5260205f20015f915054906101000a900473ffffffffffffffffffffffffffffffffffffffff1681565b670de0b6b3a764000081565b5f61045c3383611799565b90505f610478826002015f9054906101000a900460ff166118d9565b826003015461048791906127e7565b9050804210156104ce57806040517f1d0ad03c0000000000000000000000000000000000000000000000000000000081526004016104c59190612415565b60405180910390fd5b5f6104da834233611953565b90505f835f015f9054906101000a900473ffffffffffffffffffffffffffffffffffffffff1690505f846001015490506001856004015f6101000a81548160ff0219169083151502179055505f856001018190555080600c5f8473ffffffffffffffffffffffffffffffffffffffff1673ffffffffffffffffffffffffffffffffffffffff1681526020019081526020015f205f82825461057b919061281a565b925050819055503373ffffffffffffffffffffffffffffffffffffffff167f75e161b3e824b114fc1a33274bd7091918dd4e639cede50b78b15a4eea956a218783866040516105cc9392919061284d565b60405180910390a25f83111561062d573373ffffffffffffffffffffffffffffffffffffffff167fdacbdde355ba930696a362ea6738feb9f8bd52dfb3d81947558fd3217e23e3258785604051610624929190612882565b60405180910390a25b61065833828473ffffffffffffffffffffffffffffffffffffffff16611a789092919063ffffffff16565b5f83111561066b5761066a3384611af7565b5b505050505050565b5f61067e3383611799565b90505f61068c824233611953565b90505f612710611388836106a091906128a9565b6106aa9190612917565b90505f81836106b9919061281a565b90505f845f015f9054906101000a900473ffffffffffffffffffffffffffffffffffffffff1690505f856001015490506001866004015f6101000a81548160ff0219169083151502179055505f866001018190555080600c5f8473ffffffffffffffffffffffffffffffffffffffff1673ffffffffffffffffffffffffffffffffffffffff1681526020019081526020015f205f82825461075a919061281a565b925050819055503373ffffffffffffffffffffffffffffffffffffffff167f45df01186fed55abc3ac9cfa82408e10553b9b93a8f0c0b4c2965a7bedb267ec8883876040516107ab9392919061284d565b60405180910390a25f83111561080c573373ffffffffffffffffffffffffffffffffffffffff167fdacbdde355ba930696a362ea6738feb9f8bd52dfb3d81947558fd3217e23e3258885604051610803929190612882565b60405180910390a25b61083733828473ffffffffffffffffffffffffffffffffffffffff16611a789092919063ffffffff16565b5f83111561084a576108493384611af7565b5b5f84111561087e5761087d60075f9054906101000a900473ffffffffffffffffffffffffffffffffffffffff1685611af7565b5b50505050505050565b61088f611ccc565b60095f8373ffffffffffffffffffffffffffffffffffffffff1673ffffffffffffffffffffffffffffffffffffffff1681526020019081526020015f205f015f9054906101000a900460ff161561091d57816040517f01e2357500000000000000000000000000000000000000000000000000000000815260040161091491906123ed565b60405180910390fd5b60405180604001604052806001151581526020018273ffffffffffffffffffffffffffffffffffffffff1681525060095f8473ffffffffffffffffffffffffffffffffffffffff1673ffffffffffffffffffffffffffffffffffffffff1681526020019081526020015f205f820151815f015f6101000a81548160ff0219169083151502179055506020820151815f0160016101000a81548173ffffffffffffffffffffffffffffffffffffffff021916908373ffffffffffffffffffffffffffffffffffffffff160217905550905050600a82908060018154018082558091505060019003905f5260205f20015f9091909190916101000a81548173ffffffffffffffffffffffffffffffffffffffff021916908373ffffffffffffffffffffffffffffffffffffffff1602179055508173ffffffffffffffffffffffffffffffffffffffff167fd2b62e9667062d126d0b980895587e67a80c07e479f90dc89db858119b4483a182604051610a9491906123ed565b60405180910390a25050565b610aa8611ccc565b60095f8273ffffffffffffffffffffffffffffffffffffffff1673ffffffffffffffffffffffffffffffffffffffff1681526020019081526020015f205f015f9054906101000a900460ff16610b3557806040517fea3bff2e000000000000000000000000000000000000000000000000000000008152600401610b2c91906123ed565b60405180910390fd5b5f60095f8373ffffffffffffffffffffffffffffffffffffffff1673ffffffffffffffffffffffffffffffffffffffff1681526020019081526020015f205f015f6101000a81548160ff0219169083151502179055505f600a8054905090505f5b81811015610d01578273ffffffffffffffffffffffffffffffffffffffff16600a8281548110610bc957610bc8612947565b5b905f5260205f20015f9054906101000a900473ffffffffffffffffffffffffffffffffffffffff1673ffffffffffffffffffffffffffffffffffffffff1603610cf657600a600183610c1b919061281a565b81548110610c2c57610c2b612947565b5b905f5260205f20015f9054906101000a900473ffffffffffffffffffffffffffffffffffffffff16600a8281548110610c6857610c67612947565b5b905f5260205f20015f6101000a81548173ffffffffffffffffffffffffffffffffffffffff021916908373ffffffffffffffffffffffffffffffffffffffff160217905550600a805480610cbf57610cbe612974565b5b600190038181905f5260205f20015f6101000a81549073ffffffffffffffffffffffffffffffffffffffff02191690559055610d01565b806001019050610b96565b508173ffffffffffffffffffffffffffffffffffffffff167f6621c4efc5efa31320394260425b7d14cbb9d7e3754b2c98c04af66b1cbf315b60405160405180910390a25050565b60075f9054906101000a900473ffffffffffffffffffffffffffffffffffffffff1681565b60095f8473ffffffffffffffffffffffffffffffffffffffff1673ffffffffffffffffffffffffffffffffffffffff1681526020019081526020015f205f015f9054906101000a900460ff16610dfb57826040517fea3bff2e000000000000000000000000000000000000000000000000000000008152600401610df291906123ed565b60405180910390fd5b5f8203610e34576040517f1f2a200500000000000000000000000000000000000000000000000000000000815260040160405180910390fd5b5f600b5f3373ffffffffffffffffffffffffffffffffffffffff1673ffffffffffffffffffffffffffffffffffffffff1681526020019081526020015f20805490509050600b5f3373ffffffffffffffffffffffffffffffffffffffff1673ffffffffffffffffffffffffffffffffffffffff1681526020019081526020015f206040518060a001604052808673ffffffffffffffffffffffffffffffffffffffff168152602001858152602001846002811115610ef557610ef461257b565b5b81526020014281526020015f1515815250908060018154018082558091505060019003905f5260205f2090600502015f909190919091505f820151815f015f6101000a81548173ffffffffffffffffffffffffffffffffffffffff021916908373ffffffffffffffffffffffffffffffffffffffff160217905550602082015181600101556040820151816002015f6101000a81548160ff02191690836002811115610fa457610fa361257b565b5b0217905550606082015181600301556080820151816004015f6101000a81548160ff021916908315150217905550505082600c5f8673ffffffffffffffffffffffffffffffffffffffff1673ffffffffffffffffffffffffffffffffffffffff1681526020019081526020015f205f82825461102091906127e7565b925050819055508373ffffffffffffffffffffffffffffffffffffffff163373ffffffffffffffffffffffffffffffffffffffff167fa39f1a52e5f1fe5d69cdb40252b07509e684f4ea2c5596791ff7564d21e859b48585600281111561108a5761108961257b565b5b8560405161109a939291906129bc565b60405180910390a36110cf3330858773ffffffffffffffffffffffffffffffffffffffff16611d53909392919063ffffffff16565b50505050565b6110dd611ccc565b6110e65f611dd5565b565b6060600b5f8373ffffffffffffffffffffffffffffffffffffffff1673ffffffffffffffffffffffffffffffffffffffff1681526020019081526020015f20805480602002602001604051908101604052809291908181526020015f905b82821015611232578382905f5260205f2090600502016040518060a00160405290815f82015f9054906101000a900473ffffffffffffffffffffffffffffffffffffffff1673ffffffffffffffffffffffffffffffffffffffff1673ffffffffffffffffffffffffffffffffffffffff16815260200160018201548152602001600282015f9054906101000a900460ff1660028111156111e9576111e861257b565b5b60028111156111fb576111fa61257b565b5b815260200160038201548152602001600482015f9054906101000a900460ff16151515158152505081526020019060010190611146565b505050509050919050565b5f5f5f9054906101000a900473ffffffffffffffffffffffffffffffffffffffff16905090565b7f000000000000000000000000000000000000000000000000000000000000000081565b600c602052805f5260405f205f915090505481565b60085481565b5f5f600a8054905090505f5b818110156114e0575f600a82815481106112cc576112cb612947565b5b905f5260205f20015f9054906101000a900473ffffffffffffffffffffffffffffffffffffffff1690505f600c5f8373ffffffffffffffffffffffffffffffffffffffff1673ffffffffffffffffffffffffffffffffffffffff1681526020019081526020015f205490505f81036113455750506114d5565b5f60095f8473ffffffffffffffffffffffffffffffffffffffff1673ffffffffffffffffffffffffffffffffffffffff1681526020019081526020015f2090505f815f0160019054906101000a900473ffffffffffffffffffffffffffffffffffffffff1673ffffffffffffffffffffffffffffffffffffffff1663feaf968c6040518163ffffffff1660e01b815260040160a060405180830381865afa1580156113f2573d5f5f3e3d5ffd5b505050506040513d601f19601f820116820180604052508101906114169190612a77565b5050509150505f811361142c57505050506114d5565b5f8473ffffffffffffffffffffffffffffffffffffffff1663313ce5676040518163ffffffff1660e01b8152600401602060405180830381865afa158015611476573d5f5f3e3d5ffd5b505050506040513d601f19601f8201168201806040525081019061149a9190612b18565b60ff16905080600a6114ac9190612c72565b82856114b891906128a9565b6114c29190612917565b886114cd91906127e7565b975050505050505b8060010190506112af565b505090565b6009602052805f5260405f205f91509050805f015f9054906101000a900460ff1690805f0160019054906101000a900473ffffffffffffffffffffffffffffffffffffffff16905082565b5f5f61153c8484611e96565b9050806004015f9054906101000a900460ff161561155d575f9150506115b8565b5f81600301544261156e919061281a565b90505f61158a836002015f9054906101000a900460ff166118d9565b905080821115611598578091505b6115b2838385600301546115ac91906127e7565b88611953565b93505050505b92915050565b6115c6611ccc565b7fc390a98ace15a7bb6bab611eedfdbb2685043b241a869420043cdfb23ccfee50600854826040516115f9929190612882565b60405180910390a18060088190555050565b611613611ccc565b5f73ffffffffffffffffffffffffffffffffffffffff168173ffffffffffffffffffffffffffffffffffffffff1603611678576040517f14bcf5c800000000000000000000000000000000000000000000000000000000815260040160405180910390fd5b7f4ab5be82436d353e61ca18726e984e561f5c1cc7c6d38b29d2553c790434705a60075f9054906101000a900473ffffffffffffffffffffffffffffffffffffffff16826040516116ca929190612cbc565b60405180910390a18060075f6101000a81548173ffffffffffffffffffffffffffffffffffffffff021916908373ffffffffffffffffffffffffffffffffffffffff16021790555050565b61171d611ccc565b5f73ffffffffffffffffffffffffffffffffffffffff168173ffffffffffffffffffffffffffffffffffffffff160361178d575f6040517f1e4fbdf700000000000000000000000000000000000000000000000000000000815260040161178491906123ed565b60405180910390fd5b61179681611dd5565b50565b5f600b5f8473ffffffffffffffffffffffffffffffffffffffff1673ffffffffffffffffffffffffffffffffffffffff1681526020019081526020015f2080549050821061181e57816040517fd3fd1f5d0000000000000000000000000000000000000000000000000000000081526004016118159190612415565b60405180910390fd5b5f600b5f8573ffffffffffffffffffffffffffffffffffffffff1673ffffffffffffffffffffffffffffffffffffffff1681526020019081526020015f20838154811061186e5761186d612947565b5b905f5260205f2090600502019050806004015f9054906101000a900460ff16156118cf57826040517f692f8dae0000000000000000000000000000000000000000000000000000000081526004016118c69190612415565b60405180910390fd5b8091505092915050565b5f5f60028111156118ed576118ec61257b565b5b826002811115611900576118ff61257b565b5b036119105762278d00905061194e565b600160028111156119245761192361257b565b5b8260028111156119375761193661257b565b5b03611947576276a700905061194e565b62ed4e0090505b919050565b5f5f61196e856002015f9054906101000a900460ff166118d9565b90505f81866003015461198191906127e7565b90505f8186106119915781611993565b855b90505f8760030154826119a6919061281a565b90505f6001896002015f9054906101000a900460ff1660028111156119ce576119cd61257b565b5b60ff16600381106119e2576119e1612947565b5b015490505f670de0b6b3a7640000836008548c60010154611a0391906128a9565b611a0d91906128a9565b611a179190612917565b90505f600a8383611a2891906128a9565b611a329190612917565b90505f611a3e8a611f7e565b90506127108183611a4f91906128a9565b611a599190612917565b82611a6491906127e7565b915081985050505050505050509392505050565b611af2838473ffffffffffffffffffffffffffffffffffffffff1663a9059cbb8585604051602401611aab929190612ce3565b604051602081830303815290604052915060e01b6020820180517bffffffffffffffffffffffffffffffffffffffffffffffffffffffff838183161783525050505061208d565b505050565b5f7f000000000000000000000000000000000000000000000000000000000000000073ffffffffffffffffffffffffffffffffffffffff166318160ddd6040518163ffffffff1660e01b8152600401602060405180830381865afa158015611b61573d5f5f3e3d5ffd5b505050506040513d601f19601f82011682018060405250810190611b859190612d0a565b7f000000000000000000000000000000000000000000000000000000000000000073ffffffffffffffffffffffffffffffffffffffff166332cb6b0c6040518163ffffffff1660e01b8152600401602060405180830381865afa158015611bee573d5f5f3e3d5ffd5b505050506040513d601f19601f82011682018060405250810190611c129190612d0a565b611c1c919061281a565b90505f8103611c2b5750611cc8565b5f818311611c395782611c3b565b815b90507f000000000000000000000000000000000000000000000000000000000000000073ffffffffffffffffffffffffffffffffffffffff166340c10f1985836040518363ffffffff1660e01b8152600401611c98929190612ce3565b5f604051808303815f87803b158015611caf575f5ffd5b505af1158015611cc1573d5f5f3e3d5ffd5b5050505050505b5050565b611cd4612122565b73ffffffffffffffffffffffffffffffffffffffff16611cf261123d565b73ffffffffffffffffffffffffffffffffffffffff1614611d5157611d15612122565b6040517f118cdaa7000000000000000000000000000000000000000000000000000000008152600401611d4891906123ed565b60405180910390fd5b565b611dcf848573ffffffffffffffffffffffffffffffffffffffff166323b872dd868686604051602401611d8893929190612d35565b604051602081830303815290604052915060e01b6020820180517bffffffffffffffffffffffffffffffffffffffffffffffffffffffff838183161783525050505061208d565b50505050565b5f5f5f9054906101000a900473ffffffffffffffffffffffffffffffffffffffff169050815f5f6101000a81548173ffffffffffffffffffffffffffffffffffffffff021916908373ffffffffffffffffffffffffffffffffffffffff1602179055508173ffffffffffffffffffffffffffffffffffffffff168173ffffffffffffffffffffffffffffffffffffffff167f8be0079c531659141344cd1fd0a4f28419497f9722a3daafe3b4186f6b6457e060405160405180910390a35050565b5f600b5f8473ffffffffffffffffffffffffffffffffffffffff1673ffffffffffffffffffffffffffffffffffffffff1681526020019081526020015f20805490508210611f1b57816040517fd3fd1f5d000000000000000000000000000000000000000000000000000000008152600401611f129190612415565b60405180910390fd5b600b5f8473ffffffffffffffffffffffffffffffffffffffff1673ffffffffffffffffffffffffffffffffffffffff1681526020019081526020015f208281548110611f6a57611f69612947565b5b905f5260205f209060050201905092915050565b5f5f73ffffffffffffffffffffffffffffffffffffffff168273ffffffffffffffffffffffffffffffffffffffff1603611fba575f9050612088565b7f000000000000000000000000000000000000000000000000000000000000000073ffffffffffffffffffffffffffffffffffffffff1663b45aae52836040518263ffffffff1660e01b815260040161201391906123ed565b602060405180830381865afa92505050801561204d57506040513d601f19601f8201168201806040525081019061204a9190612d8d565b60015b612059575f9050612088565b600481600281111561206e5761206d61257b565b5b60ff166003811061208257612081612947565b5b01549150505b919050565b5f6120b7828473ffffffffffffffffffffffffffffffffffffffff1661212990919063ffffffff16565b90505f8151141580156120db5750808060200190518101906120d99190612de2565b155b1561211d57826040517f5274afe700000000000000000000000000000000000000000000000000000000815260040161211491906123ed565b60405180910390fd5b505050565b5f33905090565b606061213683835f61213e565b905092915050565b60608147101561218557306040517fcd78605900000000000000000000000000000000000000000000000000000000815260040161217c91906123ed565b60405180910390fd5b5f5f8573ffffffffffffffffffffffffffffffffffffffff1684866040516121ad9190612e5f565b5f6040518083038185875af1925050503d805f81146121e7576040519150601f19603f3d011682016040523d82523d5f602084013e6121ec565b606091505b50915091506121fc868383612207565b925050509392505050565b60608261221c5761221782612294565b61228c565b5f825114801561224257505f8473ffffffffffffffffffffffffffffffffffffffff163b145b1561228457836040517f9996b31500000000000000000000000000000000000000000000000000000000815260040161227b91906123ed565b60405180910390fd5b81905061228d565b5b9392505050565b5f815111156122a65780518082602001fd5b6040517f1425ea4200000000000000000000000000000000000000000000000000000000815260040160405180910390fd5b5f73ffffffffffffffffffffffffffffffffffffffff82169050919050565b5f819050919050565b5f61231a612315612310846122d8565b6122f7565b6122d8565b9050919050565b5f61232b82612300565b9050919050565b5f61233c82612321565b9050919050565b61234c81612332565b82525050565b5f6020820190506123655f830184612343565b92915050565b5f5ffd5b5f819050919050565b6123818161236f565b811461238b575f5ffd5b50565b5f8135905061239c81612378565b92915050565b5f602082840312156123b7576123b661236b565b5b5f6123c48482850161238e565b91505092915050565b5f6123d7826122d8565b9050919050565b6123e7816123cd565b82525050565b5f6020820190506124005f8301846123de565b92915050565b61240f8161236f565b82525050565b5f6020820190506124285f830184612406565b92915050565b612437816123cd565b8114612441575f5ffd5b50565b5f813590506124528161242e565b92915050565b5f5f6040838503121561246e5761246d61236b565b5b5f61247b85828601612444565b925050602061248c85828601612444565b9150509250929050565b5f602082840312156124ab576124aa61236b565b5b5f6124b884828501612444565b91505092915050565b600381106124cd575f5ffd5b50565b5f813590506124de816124c1565b92915050565b5f5f5f606084860312156124fb576124fa61236b565b5b5f61250886828701612444565b93505060206125198682870161238e565b925050604061252a868287016124d0565b9150509250925092565b5f81519050919050565b5f82825260208201905092915050565b5f819050602082019050919050565b612566816123cd565b82525050565b6125758161236f565b82525050565b7f4e487b71000000000000000000000000000000000000000000000000000000005f52602160045260245ffd5b600381106125b9576125b861257b565b5b50565b5f8190506125c9826125a8565b919050565b5f6125d8826125bc565b9050919050565b6125e8816125ce565b82525050565b5f8115159050919050565b612602816125ee565b82525050565b60a082015f82015161261c5f85018261255d565b50602082015161262f602085018261256c565b50604082015161264260408501826125df565b506060820151612655606085018261256c565b50608082015161266860808501826125f9565b50505050565b5f6126798383612608565b60a08301905092915050565b5f602082019050919050565b5f61269b82612534565b6126a5818561253e565b93506126b08361254e565b805f5b838110156126e05781516126c7888261266e565b97506126d283612685565b9250506001810190506126b3565b5085935050505092915050565b5f6020820190508181035f8301526127058184612691565b905092915050565b5f61271782612321565b9050919050565b6127278161270d565b82525050565b5f6020820190506127405f83018461271e565b92915050565b61274f816125ee565b82525050565b5f6040820190506127685f830185612746565b61277560208301846123de565b9392505050565b5f5f604083850312156127925761279161236b565b5b5f61279f85828601612444565b92505060206127b08582860161238e565b9150509250929050565b7f4e487b71000000000000000000000000000000000000000000000000000000005f52601160045260245ffd5b5f6127f18261236f565b91506127fc8361236f565b9250828201905080821115612814576128136127ba565b5b92915050565b5f6128248261236f565b915061282f8361236f565b9250828203905081811115612847576128466127ba565b5b92915050565b5f6060820190506128605f830186612406565b61286d6020830185612406565b61287a6040830184612406565b949350505050565b5f6040820190506128955f830185612406565b6128a26020830184612406565b9392505050565b5f6128b38261236f565b91506128be8361236f565b92508282026128cc8161236f565b915082820484148315176128e3576128e26127ba565b5b5092915050565b7f4e487b71000000000000000000000000000000000000000000000000000000005f52601260045260245ffd5b5f6129218261236f565b915061292c8361236f565b92508261293c5761293b6128ea565b5b828204905092915050565b7f4e487b71000000000000000000000000000000000000000000000000000000005f52603260045260245ffd5b7f4e487b71000000000000000000000000000000000000000000000000000000005f52603160045260245ffd5b5f60ff82169050919050565b6129b6816129a1565b82525050565b5f6060820190506129cf5f830186612406565b6129dc60208301856129ad565b6129e96040830184612406565b949350505050565b5f69ffffffffffffffffffff82169050919050565b612a0f816129f1565b8114612a19575f5ffd5b50565b5f81519050612a2a81612a06565b92915050565b5f819050919050565b612a4281612a30565b8114612a4c575f5ffd5b50565b5f81519050612a5d81612a39565b92915050565b5f81519050612a7181612378565b92915050565b5f5f5f5f5f60a08688031215612a9057612a8f61236b565b5b5f612a9d88828901612a1c565b9550506020612aae88828901612a4f565b9450506040612abf88828901612a63565b9350506060612ad088828901612a63565b9250506080612ae188828901612a1c565b9150509295509295909350565b612af7816129a1565b8114612b01575f5ffd5b50565b5f81519050612b1281612aee565b92915050565b5f60208284031215612b2d57612b2c61236b565b5b5f612b3a84828501612b04565b91505092915050565b5f8160011c9050919050565b5f5f8291508390505b6001851115612b9857808604811115612b7457612b736127ba565b5b6001851615612b835780820291505b8081029050612b9185612b43565b9450612b58565b94509492505050565b5f82612bb05760019050612c6b565b81612bbd575f9050612c6b565b8160018114612bd35760028114612bdd57612c0c565b6001915050612c6b565b60ff841115612bef57612bee6127ba565b5b8360020a915084821115612c0657612c056127ba565b5b50612c6b565b5060208310610133831016604e8410600b8410161715612c415782820a905083811115612c3c57612c3b6127ba565b5b612c6b565b612c4e8484846001612b4f565b92509050818404811115612c6557612c646127ba565b5b81810290505b9392505050565b5f612c7c8261236f565b9150612c878361236f565b9250612cb47fffffffffffffffffffffffffffffffffffffffffffffffffffffffffffffffff8484612ba1565b905092915050565b5f604082019050612ccf5f8301856123de565b612cdc60208301846123de565b9392505050565b5f604082019050612cf65f8301856123de565b612d036020830184612406565b9392505050565b5f60208284031215612d1f57612d1e61236b565b5b5f612d2c84828501612a63565b91505092915050565b5f606082019050612d485f8301866123de565b612d5560208301856123de565b612d626040830184612406565b949350505050565b60038110612d76575f5ffd5b50565b5f81519050612d8781612d6a565b92915050565b5f60208284031215612da257612da161236b565b5b5f612daf84828501612d79565b91505092915050565b612dc1816125ee565b8114612dcb575f5ffd5b50565b5f81519050612ddc81612db8565b92915050565b5f60208284031215612df757612df661236b565b5b5f612e0484828501612dce565b91505092915050565b5f81519050919050565b5f81905092915050565b8281835e5f83830152505050565b5f612e3982612e0d565b612e438185612e17565b9350612e53818560208601612e21565b80840191505092915050565b5f612e6a8284612e2f565b91508190509291505056fea264697066735822122086d3bf8eee9a6af4e7e3c8748141759c55f7a1c2035bee9a2cebd5a9af3781b964736f6c63430008210033","linkReferences":{}},"methodIdentifiers":{"MEMBERSHIP_NFT()":"1d3d9935","RATE_PRECISION()":"2b3ba681","REWARD_TOKEN()":"99248ea7","addToken(address,address)":"5476bd72","baseRewardRate()":"afbf3440","emergencyWithdraw(uint256)":"5312ea8e","getPendingRewards(address,uint256)":"e4e7c6b4","getTotalValueLocked()":"b26025aa","getUserStakes(address)":"842e2981","owner()":"8da5cb5b","removeToken(address)":"5fa7b584","renounceOwnership()":"715018a6","setBaseRewardRate(uint256)":"f0a9abe7","setTreasury(address)":"f0f44260","stake(address,uint256,uint8)":"6341c060","tokenInfos(address)":"ba46ae72","totalStaked(address)":"9bfd8d61","transferOwnership(address)":"f2fde38b","treasury()":"61d027b3","whitelistedTokens(uint256)":"2154bc44","withdraw(uint256)":"2e1a7d4d"},"id":34}