{"abi":[{"type":"constructor","inputs":[{"name":"initialOwner","type":"address","internalType":"address"}],"stateMutability":"nonpayable"},{"type":"function","name":"approve","inputs":[{"name":"to","type":"address","internalType":"address"},{"name":"tokenId","type":"uint256","internalType":"uint256"}],"outputs":[],"stateMutability":"nonpayable"},{"type":"function","name":"balanceOf","inputs":[{"name":"owner","type":"address","internalType":"address"}],"outputs":[{"name":"","type":"uint256","internalType":"uint256"}],"stateMutability":"view"},{"type":"function","name":"getApproved","inputs":[{"name":"tokenId","type":"uint256","internalType":"uint256"}],"outputs":[{"name":"","type":"address","internalType":"address"}],"stateMutability":"view"},{"type":"function","name":"getTier","inputs":[{"name":"user","type":"address","internalType":"address"}],"outputs":[{"name":"","type":"uint8","internalType":"enum MembershipNFT.Tier"}],"stateMutability":"view"},{"type":"function","name":"isApprovedForAll","inputs":[{"name":"owner","type":"address","internalType":"address"},{"name":"operator","type":"address","internalType":"address"}],"outputs":[{"name":"","type":"bool","internalType":"bool"}],"stateMutability":"view"},{"type":"function","name":"mint","inputs":[{"name":"to","type":"address","internalType":"address"},{"name":"tier","type":"uint8","internalType":"enum MembershipNFT.Tier"}],"outputs":[],"stateMutability":"nonpayable"},{"type":"function","name":"name","inputs":[],"outputs":[{"name":"","type":"string","internalType":"string"}],"stateMutability":"view"},{"type":"function","name":"owner","inputs":[],"outputs":[{"name":"","type":"address","internalType":"address"}],"stateMutability":"view"},{"type":"function","name":"ownerOf","inputs":[{"name":"tokenId","type":"uint256","internalType":"uint256"}],"outputs":[{"name":"","type":"address","internalType":"address"}],"stateMutability":"view"},{"type":"function","name":"renounceOwnership","inputs":[],"outputs":[],"stateMutability":"nonpayable"},{"type":"function","name":"safeTransferFrom","inputs":[{"name":"from","type":"address","internalType":"address"},{"name":"to","type":"address","internalType":"address"},{"name":"tokenId","type":"uint256","internalType":"uint256"}],"outputs":[],"stateMutability":"nonpayable"},{"type":"function","name":"safeTransferFrom","inputs":[{"name":"from","type":"address","internalType":"address"},{"name":"to","type":"address","internalType":"address"},{"name":"tokenId","type":"uint256","internalType":"uint256"},{"name":"data","type":"bytes","internalType":"bytes"}],"outputs":[],"stateMutability":"nonpayable"},{"type":"function","name":"setApprovalForAll","inputs":[{"name":"operator","type":"address","internalType":"address"},{"name":"approved","type":"bool","internalType":"bool"}],"outputs":[],"stateMutability":"nonpayable"},{"type":"function","name":"supportsInterface","inputs":[{"name":"interfaceId","type":"bytes4","internalType":"bytes4"}],"outputs":[{"name":"","type":"bool","internalType":"bool"}],"stateMutability":"view"},{"type":"function","name":"symbol","inputs":[],"outputs":[{"name":"","type":"string","internalType":"string"}],"stateMutability":"view"},{"type":"function","name":"tokenURI","inputs":[{"name":"tokenId","type":"uint256","internalType":"uint256"}],"outputs":[{"name":"","type":"string","internalType":"string"}],"stateMutability":"view"},{"type":"function","name":"transferFrom","inputs":[{"name":"from","type":"address","internalType":"address"},{"name":"to","type":"address","internalType":"address"},{"name":"tokenId","type":"uint256","internalType":"uint256"}],"outputs":[],"stateMutability":"nonpayable"},{"type":"function","name":"transferOwnership","inputs":[{"name":"newOwner","type":"address","internalType":"address"}],"outputs":[],"stateMutability":"nonpayable"},{"type":"event","name":"Approval","inputs":[{"name":"owner","type":"address","indexed":true,"internalType":"address"},{"name":"approved","type":"address","indexed":true,"internalType":"address"},{"name":"tokenId","type":"uint256","indexed":true,"internalType":"uint256"}],"anonymous":false},{"type":"event","name":"ApprovalForAll","inputs":[{"name":"owner","type":"address","indexed":true,"internalType":"address"},{"name":"operator","type":"address","indexed":true,"internalType":"address"},{"name":"approved","type":"bool","indexed":false,"internalType":"bool"}],"anonymous":false},{"type":"event","name":"OwnershipTransferred","inputs":[{"name":"previousOwner","type":"address","indexed":true,"internalType":"address"},{"name":"newOwner","type":"address","indexed":true,"internalType":"address"}],"anonymous":false},{"type":"event","name":"Transfer","inputs":[{"name":"from","type":"address","indexed":true,"internalType":"address"},{"name":"to","type":"address","indexed":true,"internalType":"address"},{"name":"tokenId","type":"uint256","indexed":true,"internalType":"uint256"}],"anonymous":false},{"type":"error","name":"AlreadyHasMembership","inputs":[{"name":"account","type":"address","internalType":"address"}]},{"type":"error","name":"ERC721IncorrectOwner","inputs":[{"name":"sender","type":"address","internalType":"address"},{"name":"tokenId","type":"uint256","internalType":"uint256"},{"name":"owner","type":"address","internalType":"address"}]},{"type":"error","name":"ERC721InsufficientApproval","inputs":[{"name":"operator","type":"address","internalType":"address"},{"name":"tokenId","type":"uint256","internalType":"uint256"}]},{"type":"error","name":"ERC721InvalidApprover","inputs":[{"name":"approver","type":"address","internalType":"address"}]},{"type":"error","name":"ERC721InvalidOperator","inputs":[{"name":"operator","type":"address","internalType":"address"}]},{"type":"error","name":"ERC721InvalidOwner","inputs":[{"name":"owner","type":"address","internalType":"address"}]},{"type":"error","name":"ERC721InvalidReceiver","inputs":[{"name":"receiver","type":"address","internalType":"address"}]},{"type":"error","name":"ERC721InvalidSender","inputs":[{"name":"sender","type":"address","internalType":"address"}]},{"type":"error","name":"ERC721NonexistentToken","inputs":[{"name":"tokenId","type":"uint256","internalType":"uint256"}]},{"type":"error","name":"NoMembership","inputs":[{"name":"account","type":"address","internalType":"address"}]},{"type":"error","name":"OwnableInvalidOwner","inputs":[{"name":"owner","type":"address","internalType":"address"}]},{"type":"error","name":"OwnableUnauthorizedAccount","inputs":[{"name":"account","type":"address","internalType":"address"}]},{"type":"error","name":"SoulboundTransferNotAllowed","inputs":[]}],"bytecode":{"object":"0x608060405234801561000f575f5ffd5b506040516129e33803806129e383398181016040528101906100319190610266565b806040518060400160405280601481526020017f4c6f636b5661756c74204d656d626572736869700000000000000000000000008152506040518060400160405280600381526020017f4c564d0000000000000000000000000000000000000000000000000000000000815250815f90816100ac91906104df565b5080600190816100bc91906104df565b5050505f73ffffffffffffffffffffffffffffffffffffffff168173ffffffffffffffffffffffffffffffffffffffff160361012f575f6040517f1e4fbdf700000000000000000000000000000000000000000000000000000000815260040161012691906105bd565b60405180910390fd5b61013e8161014560201b60201c565b50506105d6565b5f60065f9054906101000a900473ffffffffffffffffffffffffffffffffffffffff1690508160065f6101000a81548173ffffffffffffffffffffffffffffffffffffffff021916908373ffffffffffffffffffffffffffffffffffffffff1602179055508173ffffffffffffffffffffffffffffffffffffffff168173ffffffffffffffffffffffffffffffffffffffff167f8be0079c531659141344cd1fd0a4f28419497f9722a3daafe3b4186f6b6457e060405160405180910390a35050565b5f5ffd5b5f73ffffffffffffffffffffffffffffffffffffffff82169050919050565b5f6102358261020c565b9050919050565b6102458161022b565b811461024f575f5ffd5b50565b5f815190506102608161023c565b92915050565b5f6020828403121561027b5761027a610208565b5b5f61028884828501610252565b91505092915050565b5f81519050919050565b7f4e487b71000000000000000000000000000000000000000000000000000000005f52604160045260245ffd5b7f4e487b71000000000000000000000000000000000000000000000000000000005f52602260045260245ffd5b5f600282049050600182168061030c57607f821691505b60208210810361031f5761031e6102c8565b5b50919050565b5f819050815f5260205f209050919050565b5f6020601f8301049050919050565b5f82821b905092915050565b5f600883026103817fffffffffffffffffffffffffffffffffffffffffffffffffffffffffffffffff82610346565b61038b8683610346565b95508019841693508086168417925050509392505050565b5f819050919050565b5f819050919050565b5f6103cf6103ca6103c5846103a3565b6103ac565b6103a3565b9050919050565b5f819050919050565b6103e8836103b5565b6103fc6103f4826103d6565b848454610352565b825550505050565b5f5f905090565b610413610404565b61041e8184846103df565b505050565b5f5b82811015610444576104395f82840161040b565b600181019050610425565b505050565b601f82111561049757828211156104965761046381610325565b61046c83610337565b61047585610337565b6020861015610482575f90505b80830161049182840382610423565b505050505b5b505050565b5f82821c905092915050565b5f6104b75f198460080261049c565b1980831691505092915050565b5f6104cf83836104a8565b9150826002028217905092915050565b6104e882610291565b67ffffffffffffffff8111156105015761050061029b565b5b61050b82546102f5565b610516828285610449565b5f60209050601f831160018114610547575f8415610535578287015190505b61053f85826104c4565b8655506105a6565b601f19841661055586610325565b5f5b8281101561057c57848901518255600182019150602085019450602081019050610557565b868310156105995784890151610595601f8916826104a8565b8355505b6001600288020188555050505b505050505050565b6105b78161022b565b82525050565b5f6020820190506105d05f8301846105ae565b92915050565b612400806105e35f395ff3fe608060405234801561000f575f5ffd5b5060043610610114575f3560e01c8063715018a6116100a0578063b45aae521161006f578063b45aae52146102c8578063b88d4fde146102f8578063c87b56dd14610314578063e985e9c514610344578063f2fde38b1461037457610114565b8063715018a6146102665780638da5cb5b1461027057806395d89b411461028e578063a22cb465146102ac57610114565b806323b872dd116100e757806323b872dd146101b257806342842e0e146101ce5780636352211e146101ea578063691562a01461021a57806370a082311461023657610114565b806301ffc9a71461011857806306fdde0314610148578063081812fc14610166578063095ea7b314610196575b5f5ffd5b610132600480360381019061012d9190611b4a565b610390565b60405161013f9190611b8f565b60405180910390f35b610150610471565b60405161015d9190611c18565b60405180910390f35b610180600480360381019061017b9190611c6b565b610500565b60405161018d9190611cd5565b60405180910390f35b6101b060048036038101906101ab9190611d18565b61051b565b005b6101cc60048036038101906101c79190611d56565b610531565b005b6101e860048036038101906101e39190611d56565b610630565b005b61020460048036038101906101ff9190611c6b565b61064f565b6040516102119190611cd5565b60405180910390f35b610234600480360381019061022f9190611dc9565b610660565b005b610250600480360381019061024b9190611e07565b610809565b60405161025d9190611e41565b60405180910390f35b61026e6108bf565b005b6102786108d2565b6040516102859190611cd5565b60405180910390f35b6102966108fa565b6040516102a39190611c18565b60405180910390f35b6102c660048036038101906102c19190611e84565b61098a565b005b6102e260048036038101906102dd9190611e07565b6109a0565b6040516102ef9190611f35565b60405180910390f35b610312600480360381019061030d919061207a565b610a40565b005b61032e60048036038101906103299190611c6b565b610a5d565b60405161033b9190611c18565b60405180910390f35b61035e600480360381019061035991906120fa565b610ac3565b60405161036b9190611b8f565b60405180910390f35b61038e60048036038101906103899190611e07565b610b51565b005b5f7f80ac58cd000000000000000000000000000000000000000000000000000000007bffffffffffffffffffffffffffffffffffffffffffffffffffffffff1916827bffffffffffffffffffffffffffffffffffffffffffffffffffffffff1916148061045a57507f5b5e139f000000000000000000000000000000000000000000000000000000007bffffffffffffffffffffffffffffffffffffffffffffffffffffffff1916827bffffffffffffffffffffffffffffffffffffffffffffffffffffffff1916145b8061046a575061046982610bd5565b5b9050919050565b60605f805461047f90612165565b80601f01602080910402602001604051908101604052809291908181526020018280546104ab90612165565b80156104f65780601f106104cd576101008083540402835291602001916104f6565b820191905f5260205f20905b8154815290600101906020018083116104d957829003601f168201915b5050505050905090565b5f61050a82610c3e565b5061051482610cc4565b9050919050565b61052d8282610528610cfd565b610d04565b5050565b5f73ffffffffffffffffffffffffffffffffffffffff168273ffffffffffffffffffffffffffffffffffffffff16036105a1575f6040517f64a0ae920000000000000000000000000000000000000000000000000000000081526004016105989190611cd5565b60405180910390fd5b5f6105b483836105af610cfd565b610d16565b90508373ffffffffffffffffffffffffffffffffffffffff168173ffffffffffffffffffffffffffffffffffffffff161461062a578382826040517f64283d7b00000000000000000000000000000000000000000000000000000000815260040161062193929190612195565b60405180910390fd5b50505050565b61064a83838360405180602001604052805f815250610a40565b505050565b5f61065982610c3e565b9050919050565b610668610d9d565b5f61067283610809565b11156106b557816040517f99f634610000000000000000000000000000000000000000000000000000000081526004016106ac9190611cd5565b60405180910390fd5b5f60075f8154809291906106c8906121f7565b9190505590505f81905060405180604001604052808460028111156106f0576106ef611ec2565b5b8152602001826bffffffffffffffffffffffff1681525060085f8673ffffffffffffffffffffffffffffffffffffffff1673ffffffffffffffffffffffffffffffffffffffff1681526020019081526020015f205f820151815f015f6101000a81548160ff0219169083600281111561076c5761076b611ec2565b5b02179055506020820151815f0160016101000a8154816bffffffffffffffffffffffff02191690836bffffffffffffffffffffffff1602179055509050508360095f8481526020019081526020015f205f6101000a81548173ffffffffffffffffffffffffffffffffffffffff021916908373ffffffffffffffffffffffffffffffffffffffff1602179055506108038483610e24565b50505050565b5f5f73ffffffffffffffffffffffffffffffffffffffff168273ffffffffffffffffffffffffffffffffffffffff160361087a575f6040517f89c62b640000000000000000000000000000000000000000000000000000000081526004016108719190611cd5565b60405180910390fd5b60035f8373ffffffffffffffffffffffffffffffffffffffff1673ffffffffffffffffffffffffffffffffffffffff1681526020019081526020015f20549050919050565b6108c7610d9d565b6108d05f610e41565b565b5f60065f9054906101000a900473ffffffffffffffffffffffffffffffffffffffff16905090565b60606001805461090990612165565b80601f016020809104026020016040519081016040528092919081815260200182805461093590612165565b80156109805780601f1061095757610100808354040283529160200191610980565b820191905f5260205f20905b81548152906001019060200180831161096357829003601f168201915b5050505050905090565b61099c610995610cfd565b8383610f04565b5050565b5f5f6109ab83610809565b036109ed57816040517fbf4f048e0000000000000000000000000000000000000000000000000000000081526004016109e49190611cd5565b60405180910390fd5b60085f8373ffffffffffffffffffffffffffffffffffffffff1673ffffffffffffffffffffffffffffffffffffffff1681526020019081526020015f205f015f9054906101000a900460ff169050919050565b610a4b848484610531565b610a578484848461106d565b50505050565b6060610a6882610c3e565b505f610a7261121f565b90505f815111610a905760405180602001604052805f815250610abb565b80610a9a84611235565b604051602001610aab929190612278565b6040516020818303038152906040525b915050919050565b5f60055f8473ffffffffffffffffffffffffffffffffffffffff1673ffffffffffffffffffffffffffffffffffffffff1681526020019081526020015f205f8373ffffffffffffffffffffffffffffffffffffffff1673ffffffffffffffffffffffffffffffffffffffff1681526020019081526020015f205f9054906101000a900460ff16905092915050565b610b59610d9d565b5f73ffffffffffffffffffffffffffffffffffffffff168173ffffffffffffffffffffffffffffffffffffffff1603610bc9575f6040517f1e4fbdf7000000000000000000000000000000000000000000000000000000008152600401610bc09190611cd5565b60405180910390fd5b610bd281610e41565b50565b5f7f01ffc9a7000000000000000000000000000000000000000000000000000000007bffffffffffffffffffffffffffffffffffffffffffffffffffffffff1916827bffffffffffffffffffffffffffffffffffffffffffffffffffffffff1916149050919050565b5f5f610c49836112ff565b90505f73ffffffffffffffffffffffffffffffffffffffff168173ffffffffffffffffffffffffffffffffffffffff1603610cbb57826040517f7e273289000000000000000000000000000000000000000000000000000000008152600401610cb29190611e41565b60405180910390fd5b80915050919050565b5f60045f8381526020019081526020015f205f9054906101000a900473ffffffffffffffffffffffffffffffffffffffff169050919050565b5f33905090565b610d118383836001611338565b505050565b5f5f610d21846112ff565b90505f73ffffffffffffffffffffffffffffffffffffffff168173ffffffffffffffffffffffffffffffffffffffff1614610d88576040517f1a3022a600000000000000000000000000000000000000000000000000000000815260040160405180910390fd5b610d938585856114f7565b9150509392505050565b610da5610cfd565b73ffffffffffffffffffffffffffffffffffffffff16610dc36108d2565b73ffffffffffffffffffffffffffffffffffffffff1614610e2257610de6610cfd565b6040517f118cdaa7000000000000000000000000000000000000000000000000000000008152600401610e199190611cd5565b60405180910390fd5b565b610e3d828260405180602001604052805f815250611702565b5050565b5f60065f9054906101000a900473ffffffffffffffffffffffffffffffffffffffff1690508160065f6101000a81548173ffffffffffffffffffffffffffffffffffffffff021916908373ffffffffffffffffffffffffffffffffffffffff1602179055508173ffffffffffffffffffffffffffffffffffffffff168173ffffffffffffffffffffffffffffffffffffffff167f8be0079c531659141344cd1fd0a4f28419497f9722a3daafe3b4186f6b6457e060405160405180910390a35050565b5f73ffffffffffffffffffffffffffffffffffffffff168273ffffffffffffffffffffffffffffffffffffffff1603610f7457816040517f5b08ba18000000000000000000000000000000000000000000000000000000008152600401610f6b9190611cd5565b60405180910390fd5b8060055f8573ffffffffffffffffffffffffffffffffffffffff1673ffffffffffffffffffffffffffffffffffffffff1681526020019081526020015f205f8473ffffffffffffffffffffffffffffffffffffffff1673ffffffffffffffffffffffffffffffffffffffff1681526020019081526020015f205f6101000a81548160ff0219169083151502179055508173ffffffffffffffffffffffffffffffffffffffff168373ffffffffffffffffffffffffffffffffffffffff167f17307eab39ab6107e8899845ad3d59bd9653f200f220920489ca2b5937696c31836040516110609190611b8f565b60405180910390a3505050565b5f8373ffffffffffffffffffffffffffffffffffffffff163b1115611219578273ffffffffffffffffffffffffffffffffffffffff1663150b7a026110b0610cfd565b8685856040518563ffffffff1660e01b81526004016110d294939291906122ed565b6020604051808303815f875af192505050801561110d57506040513d601f19601f8201168201806040525081019061110a919061234b565b60015b61118e573d805f811461113b576040519150601f19603f3d011682016040523d82523d5f602084013e611140565b606091505b505f81510361118657836040517f64a0ae9200000000000000000000000000000000000000000000000000000000815260040161117d9190611cd5565b60405180910390fd5b805181602001fd5b63150b7a0260e01b7bffffffffffffffffffffffffffffffffffffffffffffffffffffffff1916817bffffffffffffffffffffffffffffffffffffffffffffffffffffffff19161461121757836040517f64a0ae9200000000000000000000000000000000000000000000000000000000815260040161120e9190611cd5565b60405180910390fd5b505b50505050565b606060405180602001604052805f815250905090565b60605f60016112438461171d565b0190505f8167ffffffffffffffff81111561126157611260611f56565b5b6040519080825280601f01601f1916602001820160405280156112935781602001600182028036833780820191505090505b5090505f82602001820190505b6001156112f4578080600190039150507f3031323334353637383961626364656600000000000000000000000000000000600a86061a8153600a85816112e9576112e8612376565b5b0494505f85036112a0575b819350505050919050565b5f60025f8381526020019081526020015f205f9054906101000a900473ffffffffffffffffffffffffffffffffffffffff169050919050565b808061137057505f73ffffffffffffffffffffffffffffffffffffffff168273ffffffffffffffffffffffffffffffffffffffff1614155b156114a2575f61137f84610c3e565b90505f73ffffffffffffffffffffffffffffffffffffffff168373ffffffffffffffffffffffffffffffffffffffff16141580156113e957508273ffffffffffffffffffffffffffffffffffffffff168173ffffffffffffffffffffffffffffffffffffffff1614155b80156113fc57506113fa8184610ac3565b155b1561143e57826040517fa9fbf51f0000000000000000000000000000000000000000000000000000000081526004016114359190611cd5565b60405180910390fd5b81156114a057838573ffffffffffffffffffffffffffffffffffffffff168273ffffffffffffffffffffffffffffffffffffffff167f8c5be1e5ebec7d5bd14f71427d1e84f3dd0314c0f7b2291e5b200ac8c7c3b92560405160405180910390a45b505b8360045f8581526020019081526020015f205f6101000a81548173ffffffffffffffffffffffffffffffffffffffff021916908373ffffffffffffffffffffffffffffffffffffffff16021790555050505050565b5f5f611502846112ff565b90505f73ffffffffffffffffffffffffffffffffffffffff168373ffffffffffffffffffffffffffffffffffffffff16146115435761154281848661186e565b5b5f73ffffffffffffffffffffffffffffffffffffffff168173ffffffffffffffffffffffffffffffffffffffff16146115ce576115825f855f5f611338565b600160035f8373ffffffffffffffffffffffffffffffffffffffff1673ffffffffffffffffffffffffffffffffffffffff1681526020019081526020015f205f82825403925050819055505b5f73ffffffffffffffffffffffffffffffffffffffff168573ffffffffffffffffffffffffffffffffffffffff161461164d57600160035f8773ffffffffffffffffffffffffffffffffffffffff1673ffffffffffffffffffffffffffffffffffffffff1681526020019081526020015f205f82825401925050819055505b8460025f8681526020019081526020015f205f6101000a81548173ffffffffffffffffffffffffffffffffffffffff021916908373ffffffffffffffffffffffffffffffffffffffff160217905550838573ffffffffffffffffffffffffffffffffffffffff168273ffffffffffffffffffffffffffffffffffffffff167fddf252ad1be2c89b69c2b068fc378daa952ba7f163c4a11628f55a4df523b3ef60405160405180910390a4809150509392505050565b61170c8383611931565b6117185f84848461106d565b505050565b5f5f5f90507a184f03e93ff9f4daa797ed6e38ed64bf6a1f0100000000000000008310611779577a184f03e93ff9f4daa797ed6e38ed64bf6a1f010000000000000000838161176f5761176e612376565b5b0492506040810190505b6d04ee2d6d415b85acef810000000083106117b6576d04ee2d6d415b85acef810000000083816117ac576117ab612376565b5b0492506020810190505b662386f26fc1000083106117e557662386f26fc1000083816117db576117da612376565b5b0492506010810190505b6305f5e100831061180e576305f5e100838161180457611803612376565b5b0492506008810190505b612710831061183357612710838161182957611828612376565b5b0492506004810190505b60648310611856576064838161184c5761184b612376565b5b0492506002810190505b600a8310611865576001810190505b80915050919050565b611879838383611a24565b61192c575f73ffffffffffffffffffffffffffffffffffffffff168373ffffffffffffffffffffffffffffffffffffffff16036118ed57806040517f7e2732890000000000000000000000000000000000000000000000000000000081526004016118e49190611e41565b60405180910390fd5b81816040517f177e802f0000000000000000000000000000000000000000000000000000000081526004016119239291906123a3565b60405180910390fd5b505050565b5f73ffffffffffffffffffffffffffffffffffffffff168273ffffffffffffffffffffffffffffffffffffffff16036119a1575f6040517f64a0ae920000000000000000000000000000000000000000000000000000000081526004016119989190611cd5565b60405180910390fd5b5f6119ad83835f610d16565b90505f73ffffffffffffffffffffffffffffffffffffffff168173ffffffffffffffffffffffffffffffffffffffff1614611a1f575f6040517f73c6ac6e000000000000000000000000000000000000000000000000000000008152600401611a169190611cd5565b60405180910390fd5b505050565b5f5f73ffffffffffffffffffffffffffffffffffffffff168373ffffffffffffffffffffffffffffffffffffffff1614158015611adb57508273ffffffffffffffffffffffffffffffffffffffff168473ffffffffffffffffffffffffffffffffffffffff161480611a9c5750611a9b8484610ac3565b5b80611ada57508273ffffffffffffffffffffffffffffffffffffffff16611ac283610cc4565b73ffffffffffffffffffffffffffffffffffffffff16145b5b90509392505050565b5f604051905090565b5f5ffd5b5f5ffd5b5f7fffffffff0000000000000000000000000000000000000000000000000000000082169050919050565b611b2981611af5565b8114611b33575f5ffd5b50565b5f81359050611b4481611b20565b92915050565b5f60208284031215611b5f57611b5e611aed565b5b5f611b6c84828501611b36565b91505092915050565b5f8115159050919050565b611b8981611b75565b82525050565b5f602082019050611ba25f830184611b80565b92915050565b5f81519050919050565b5f82825260208201905092915050565b8281835e5f83830152505050565b5f601f19601f8301169050919050565b5f611bea82611ba8565b611bf48185611bb2565b9350611c04818560208601611bc2565b611c0d81611bd0565b840191505092915050565b5f6020820190508181035f830152611c308184611be0565b905092915050565b5f819050919050565b611c4a81611c38565b8114611c54575f5ffd5b50565b5f81359050611c6581611c41565b92915050565b5f60208284031215611c8057611c7f611aed565b5b5f611c8d84828501611c57565b91505092915050565b5f73ffffffffffffffffffffffffffffffffffffffff82169050919050565b5f611cbf82611c96565b9050919050565b611ccf81611cb5565b82525050565b5f602082019050611ce85f830184611cc6565b92915050565b611cf781611cb5565b8114611d01575f5ffd5b50565b5f81359050611d1281611cee565b92915050565b5f5f60408385031215611d2e57611d2d611aed565b5b5f611d3b85828601611d04565b9250506020611d4c85828601611c57565b9150509250929050565b5f5f5f60608486031215611d6d57611d6c611aed565b5b5f611d7a86828701611d04565b9350506020611d8b86828701611d04565b9250506040611d9c86828701611c57565b9150509250925092565b60038110611db2575f5ffd5b50565b5f81359050611dc381611da6565b92915050565b5f5f60408385031215611ddf57611dde611aed565b5b5f611dec85828601611d04565b9250506020611dfd85828601611db5565b9150509250929050565b5f60208284031215611e1c57611e1b611aed565b5b5f611e2984828501611d04565b91505092915050565b611e3b81611c38565b82525050565b5f602082019050611e545f830184611e32565b92915050565b611e6381611b75565b8114611e6d575f5ffd5b50565b5f81359050611e7e81611e5a565b92915050565b5f5f60408385031215611e9a57611e99611aed565b5b5f611ea785828601611d04565b9250506020611eb885828601611e70565b9150509250929050565b7f4e487b71000000000000000000000000000000000000000000000000000000005f52602160045260245ffd5b60038110611f0057611eff611ec2565b5b50565b5f819050611f1082611eef565b919050565b5f611f1f82611f03565b9050919050565b611f2f81611f15565b82525050565b5f602082019050611f485f830184611f26565b92915050565b5f5ffd5b5f5ffd5b7f4e487b71000000000000000000000000000000000000000000000000000000005f52604160045260245ffd5b611f8c82611bd0565b810181811067ffffffffffffffff82111715611fab57611faa611f56565b5b80604052505050565b5f611fbd611ae4565b9050611fc98282611f83565b919050565b5f67ffffffffffffffff821115611fe857611fe7611f56565b5b611ff182611bd0565b9050602081019050919050565b828183375f83830152505050565b5f61201e61201984611fce565b611fb4565b90508281526020810184848401111561203a57612039611f52565b5b612045848285611ffe565b509392505050565b5f82601f83011261206157612060611f4e565b5b813561207184826020860161200c565b91505092915050565b5f5f5f5f6080858703121561209257612091611aed565b5b5f61209f87828801611d04565b94505060206120b087828801611d04565b93505060406120c187828801611c57565b925050606085013567ffffffffffffffff8111156120e2576120e1611af1565b5b6120ee8782880161204d565b91505092959194509250565b5f5f604083850312156121105761210f611aed565b5b5f61211d85828601611d04565b925050602061212e85828601611d04565b9150509250929050565b7f4e487b71000000000000000000000000000000000000000000000000000000005f52602260045260245ffd5b5f600282049050600182168061217c57607f821691505b60208210810361218f5761218e612138565b5b50919050565b5f6060820190506121a85f830186611cc6565b6121b56020830185611e32565b6121c26040830184611cc6565b949350505050565b7f4e487b71000000000000000000000000000000000000000000000000000000005f52601160045260245ffd5b5f61220182611c38565b91507fffffffffffffffffffffffffffffffffffffffffffffffffffffffffffffffff8203612233576122326121ca565b5b600182019050919050565b5f81905092915050565b5f61225282611ba8565b61225c818561223e565b935061226c818560208601611bc2565b80840191505092915050565b5f6122838285612248565b915061228f8284612248565b91508190509392505050565b5f81519050919050565b5f82825260208201905092915050565b5f6122bf8261229b565b6122c981856122a5565b93506122d9818560208601611bc2565b6122e281611bd0565b840191505092915050565b5f6080820190506123005f830187611cc6565b61230d6020830186611cc6565b61231a6040830185611e32565b818103606083015261232c81846122b5565b905095945050505050565b5f8151905061234581611b20565b92915050565b5f602082840312156123605761235f611aed565b5b5f61236d84828501612337565b91505092915050565b7f4e487b71000000000000000000000000000000000000000000000000000000005f52601260045260245ffd5b5f6040820190506123b65f830185611cc6565b6123c36020830184611e32565b939250505056fea2646970667358221220ac6b5ab130320283951b50f2f853a51c3dd645f9af9350d2f33e1405956d3d4c64736f6c63430008210033","linkReferences":{}},"methodIdentifiers":{"approve(address,uint256)":"095ea7b3","balanceOf(address)":"70a08231","getApproved(uint256)":"081812fc","getTier(address)":"b45aae52","isApprovedForAll(address,address)":"e985e9c5","mint(address,uint8)":"691562a0","name()":"06fdde03","owner()":"8da5cb5b","ownerOf(uint256)":"6352211e","renounceOwnership()":"715018a6","safeTransferFrom(address,address,uint256)":"42842e0e","safeTransferFrom(address,address,uint256,bytes)":"b88d4fde","setApprovalForAll(address,bool)":"a22cb465","supportsInterface(bytes4)":"01ffc9a7","symbol()":"95d89b41","tokenURI(uint256)":"c87b56dd","transferFrom(address,address,uint256)":"23b872dd","transferOwnership(address)":"f2fde38b"},"id":35}