{"abi":[{"type":"constructor","inputs":[{"name":"initialOwner","type":"address","internalType":"address"},{"name":"initialPrice","type":"int256","internalType":"int256"}],"stateMutability":"nonpayable"},{"type":"function","name":"decimals","inputs":[],"outputs":[{"name":"","type":"uint8","internalType":"uint8"}],"stateMutability":"pure"},{"type":"function","name":"latestRoundData","inputs":[],"outputs":[{"name":"roundId","type":"uint80","internalType":"uint80"},{"name":"answer","type":"int256","internalType":"int256"},{"name":"startedAt","type":"uint256","internalType":"uint256"},{"name":"updatedAt","type":"uint256","internalType":"uint256"},{"name":"answeredInRound","type":"uint80","internalType":"uint80"}],"stateMutability":"view"},{"type":"function","name":"owner","inputs":[],"outputs":[{"name":"","type":"address","internalType":"address"}],"stateMutability":"view"},{"type":"function","name":"renounceOwnership","inputs":[],"outputs":[],"stateMutability":"nonpayable"},{"type":"function","name":"setPrice","inputs":[{"name":"newPrice","type":"int256","internalType":"int256"}],"outputs":[],"stateMutability":"nonpayable"},{"type":"function","name":"transferOwnership","inputs":[{"name":"newOwner","type":"address","internalType":"address"}],"outputs":[],"stateMutability":"nonpayable"},{"type":"event","name":"OwnershipTransferred","inputs":[{"name":"previousOwner","type":"address","indexed":true,"internalType":"address"},{"name":"newOwner","type":"address","indexed":true,"internalType":"address"}],"anonymous":false},{"type":"error","name":"InvalidPrice","inputs":[{"name":"price","type":"int256","internalType":"int256"}]},{"type":"error","name":"OwnableInvalidOwner","inputs":[{"name":"owner","type":"address","internalType":"address"}]},{"type":"error","name":"OwnableUnauthorizedAccount","inputs":[{"name":"account","type":"address","internalType":"address"}]}],"bytecode":{"object":"0x608060405234801561000f575f5ffd5b506040516109b63803806109b683398181016040528101906100319190610283565b815f73ffffffffffffffffffffffffffffffffffffffff168173ffffffffffffffffffffffffffffffffffffffff16036100a2575f6040517f1e4fbdf700000000000000000000000000000000000000000000000000000000815260040161009991906102d0565b60405180910390fd5b6100b18161013160201b60201c565b505f81136100f657806040517f38ee04a70000000000000000000000000000000000000000000000000000000081526004016100ed91906102f8565b60405180910390fd5b80600181905550600160025f6101000a81548169ffffffffffffffffffff021916908369ffffffffffffffffffff1602179055505050610311565b5f5f5f9054906101000a900473ffffffffffffffffffffffffffffffffffffffff169050815f5f6101000a81548173ffffffffffffffffffffffffffffffffffffffff021916908373ffffffffffffffffffffffffffffffffffffffff1602179055508173ffffffffffffffffffffffffffffffffffffffff168173ffffffffffffffffffffffffffffffffffffffff167f8be0079c531659141344cd1fd0a4f28419497f9722a3daafe3b4186f6b6457e060405160405180910390a35050565b5f5ffd5b5f73ffffffffffffffffffffffffffffffffffffffff82169050919050565b5f61021f826101f6565b9050919050565b61022f81610215565b8114610239575f5ffd5b50565b5f8151905061024a81610226565b92915050565b5f819050919050565b61026281610250565b811461026c575f5ffd5b50565b5f8151905061027d81610259565b92915050565b5f5f60408385031215610299576102986101f2565b5b5f6102a68582860161023c565b92505060206102b78582860161026f565b9150509250929050565b6102ca81610215565b82525050565b5f6020820190506102e35f8301846102c1565b92915050565b6102f281610250565b82525050565b5f60208201905061030b5f8301846102e9565b92915050565b6106988061031e5f395ff3fe608060405234801561000f575f5ffd5b5060043610610060575f3560e01c8063313ce56714610064578063715018a6146100825780638da5cb5b1461008c578063f2fde38b146100aa578063f7a30806146100c6578063feaf968c146100e2575b5f5ffd5b61006c610104565b6040516100799190610427565b60405180910390f35b61008a61010c565b005b61009461011f565b6040516100a1919061047f565b60405180910390f35b6100c460048036038101906100bf91906104c6565b610146565b005b6100e060048036038101906100db9190610524565b6101ca565b005b6100ea610272565b6040516100fb95949392919061059a565b60405180910390f35b5f6008905090565b6101146102bd565b61011d5f610344565b565b5f5f5f9054906101000a900473ffffffffffffffffffffffffffffffffffffffff16905090565b61014e6102bd565b5f73ffffffffffffffffffffffffffffffffffffffff168173ffffffffffffffffffffffffffffffffffffffff16036101be575f6040517f1e4fbdf70000000000000000000000000000000000000000000000000000000081526004016101b5919061047f565b60405180910390fd5b6101c781610344565b50565b6101d26102bd565b5f811361021657806040517f38ee04a700000000000000000000000000000000000000000000000000000000815260040161020d91906105eb565b60405180910390fd5b60025f81819054906101000a900469ffffffffffffffffffff168092919061023d90610631565b91906101000a81548169ffffffffffffffffffff021916908369ffffffffffffffffffff160217905550508060018190555050565b5f5f5f5f5f60025f9054906101000a900469ffffffffffffffffffff16600154424260025f9054906101000a900469ffffffffffffffffffff16945094509450945094509091929394565b6102c5610405565b73ffffffffffffffffffffffffffffffffffffffff166102e361011f565b73ffffffffffffffffffffffffffffffffffffffff161461034257610306610405565b6040517f118cdaa7000000000000000000000000000000000000000000000000000000008152600401610339919061047f565b60405180910390fd5b565b5f5f5f9054906101000a900473ffffffffffffffffffffffffffffffffffffffff169050815f5f6101000a81548173ffffffffffffffffffffffffffffffffffffffff021916908373ffffffffffffffffffffffffffffffffffffffff1602179055508173ffffffffffffffffffffffffffffffffffffffff168173ffffffffffffffffffffffffffffffffffffffff167f8be0079c531659141344cd1fd0a4f28419497f9722a3daafe3b4186f6b6457e060405160405180910390a35050565b5f33905090565b5f60ff82169050919050565b6104218161040c565b82525050565b5f60208201905061043a5f830184610418565b92915050565b5f73ffffffffffffffffffffffffffffffffffffffff82169050919050565b5f61046982610440565b9050919050565b6104798161045f565b82525050565b5f6020820190506104925f830184610470565b92915050565b5f5ffd5b6104a58161045f565b81146104af575f5ffd5b50565b5f813590506104c08161049c565b92915050565b5f602082840312156104db576104da610498565b5b5f6104e8848285016104b2565b91505092915050565b5f819050919050565b610503816104f1565b811461050d575f5ffd5b50565b5f8135905061051e816104fa565b92915050565b5f6020828403121561053957610538610498565b5b5f61054684828501610510565b91505092915050565b5f69ffffffffffffffffffff82169050919050565b61056d8161054f565b82525050565b61057c816104f1565b82525050565b5f819050919050565b61059481610582565b82525050565b5f60a0820190506105ad5f830188610564565b6105ba6020830187610573565b6105c7604083018661058b565b6105d4606083018561058b565b6105e16080830184610564565b9695505050505050565b5f6020820190506105fe5f830184610573565b92915050565b7f4e487b71000000000000000000000000000000000000000000000000000000005f52601160045260245ffd5b5f61063b8261054f565b915069ffffffffffffffffffff820361065757610656610604565b5b60018201905091905056fea2646970667358221220e52bf430e2dc7297638e75d478037128108c61a5e0b0073b36476c4b03812b5164736f6c63430008210033","linkReferences":{}},"methodIdentifiers":{"decimals()":"313ce567","latestRoundData()":"feaf968c","owner()":"8da5cb5b","renounceOwnership()":"715018a6","setPrice(int256)":"f7a30806","transferOwnership(address)":"f2fde38b"},"id":37}